:020000040800F2
:1000000000000420250300082D0300083503000824
:100010008D03000895030008ED03000800000000B0
:10002000000000000000000000000000AD450008D6
:100030004D04000800000000B9450008C54500084F
:10004000B93A0008B93A0008B93A0008B93A0008C4
:10005000B93A0008B93A0008B93A0008B93A0008B4
:10006000B93A0008B93A0008B93A0008B93A0008A4
:10007000B93A0008B93A0008B93A0008B93A000894
:10008000B93A0008B93A0008B93A0008B93A000884
:10009000B93A0008B93A0008B93A0008B93A000874
:1000A000B93A0008B93A0008B93A0008B93A000864
:1000B000B93A0008B93A0008B93A0008B93A000854
:1000C000B93A0008B93A0008B93A0008B93A000844
:1000D000B93A0008B93A0008B93A0008B93A000834
:1000E000B93A0008B93A0008B93A0008B93A000824
:1000F000B93A0008B93A0008B93A0008B93A000814
:10010000B93A0008B93A0008B93A0008B93A000803
:10011000B93A0008B93A0008B93A0008B93A0008F3
:10012000B93A0008B93A0008B93A0008B93A0008E3
:10013000B93A0008B93A0008B93A0008B93A0008D3
:10014000B93A0008B93A0008B93A0008B93A0008C3
:10015000B93A0008B93A0008B93A0008B93A0008B3
:10016000B93A0008B93A0008B93A0008B93A0008A3
:10017000B93A0008B93A0008B93A0008000000008E
:10018000B93A0008B93A0008B93A0008B93A000883
:10019000B93A0008B93A0008B93A0008B93A000873
:1001A000B93A0008B93A0008B93A000880B58EB0EB
:1001B00000AF03F0D7FB494B494A1A60494B484A04
:1001C0001A60494BFB62494BBB62494B7B62BB6A7D
:1001D0003B6207E03B6A1A1D3A62FA6A111DF96236
:1001E00012681A607A6A3B6A9A42F3D83B4B1B68E2
:1001F000404A934204D13B4B1B683F4A934200D094
:10020000FEE73E4B364A1A603D4B354A1A603D4B7D
:100210007B633D4BFB617B6BBB6104E0BB691A1DDB
:10022000BA6100221A60FA69BB699A42F6D8334B68
:100230001B68002B03D1324B1B68002B00D0FEE75C
:1002400003F09EFB3A463B1D1146184603F04AFB5D
:100250002E4A2F4BD31A9B10FB600023BB6007E094
:100260002B4ABB6852F823309847BB680133BB6008
:10027000FA68BB689A42F3DC264A274BD31A9B10D4
:10028000FB600023BB6007E0234ABB6852F82330C1
:100290009847BB680133BB60FA68BB689A42F3DCDD
:1002A0007B683A681146184603F0B2FC38631B4A73
:1002B0001B4BD31A9B107B617B693B6108E03B6958
:1002C000013B174A52F8233098473B69013B3B6199
:1002D0003B69002BF3DC386B03F0CAFA0000002006
:1002E000BABADECA740000203452000800000020B0
:1002F0007800002078563412325476987800002026
:10030000DC02002078000020E00200209C040008AD
:100310009C0400089C0400089C0400089C0400083D
:100320009C04000880B500AFFFF740FF80B400AF29
:1003300000BEFEE71EF0040F0CBFEFF30880EFF3E2
:1003400009807146484A104700BF00BF80B588B099
:1003500002AF786039600B4B5B6B7B61094B9B6B29
:100360003B61084B9B6AFB60074803F0CDFA3B6892
:1003700000933B697A69F968786803F007FB00BE6F
:10038000FEE700BF00ED00E0C051000880B400AF00
:1003900000BEFEE71EF0040F0CBFEFF30880EFF382
:1003A00009807146314A104700BF00BF80B588B050
:1003B00002AF786039600B4B5B6B7B61094B9B6BC9
:1003C0003B61084B9B6AFB60074803F09DFA3B6862
:1003D00000933B697A69F968786803F0D7FA00BE40
:1003E000FEE700BF00ED00E0D05100081EF0040F52
:1003F0000CBFEFF30880EFF3098071461C4A1047E9
:1004000000BF00BF80B588B002AF786039600B4B89
:100410005B6B7B61094B9B6B3B61084B9B6AFB6091
:10042000074803F071FA3B6800933B697A69F96801
:10043000786803F0ABFA00BEFEE700BF00ED00E015
:10044000DC51000880B400AF00BEFEE780B400AF0E
:1004500000BEFEE780B400AF00BEFEE780B400AF90
:1004600000BFBD4680BC70474D030008AD030008C7
:040470000504000877
:1004740034520008000000207800002034520008A4
:10048400000000100000001078000020E0020020AE
:08049400000000100000001040
:1004A00080B500AF0E4A0E4B1B6843F40073136017
:1004B0000B4A0B4B1B6843F480631360084A084BDC
:1004C0001B6843F480731360032000F0EDF80020F4
:1004D00000F008F803F0DCFE0023184680BD00BFE2
:1004E000003C024080B582B000AF7860094B1B68C9
:1004F000094AA2FB03239B09184600F021F90022B8
:1005000079684FF0FF3000F0EFF800231846083705
:10051000BD4680BD0C000020D34D621080B400AFFA
:10052000044B1B680133034A136000BFBD4680BC07
:10053000704700BF0C01002080B400AF024B1B6865
:100540001846BD4680BC70470C01002080B485B0C1
:1005500000AF78607B6803F00703FB600C4BDB683F
:10056000BB60BA684FF6FF031340BB60FB681A021A
:10057000BB68134343F0BF6343F40033BB60044ADA
:10058000BB68D36000BF1437BD4680BC704700BF56
:1005900000ED00E080B400AF044BDB6803F4E063DF
:1005A0001B0A1846BD4680BC704700BF00ED00E046
:1005B00080B483B000AF03463960FB7197F9073010
:1005C000002B0BDA0D49FB7903F00F03043B3A686B
:1005D000D2B21201D2B20B441A7609E0084997F957
:1005E00007303A68D2B21201D2B20B4483F800232A
:1005F00000BF0C37BD4680BC704700BF00ED00E077
:1006000000E100E080B489B000AFF860B9607A60C2
:10061000FB6803F00703FB61FB69C3F10703042BCD
:1006200028BF0423BB61FB690433062B02D9FB6995
:10063000033B00E000237B610122BB6902FA03F364
:100640005A1EBB681A407B699A4001217B6901FAF6
:1006500003F3591E7B680B40134318462437BD46ED
:1006600080BC704780B582B000AF78607B68013B8A
:10067000B3F1807F01D301230FE00A4A7B68013B7D
:1006800053600F214FF0FF30FFF792FF054B002220
:100690009A60044B07221A60002318460837BD46AB
:1006A00080BD00BF10E000E080B582B000AF786090
:1006B0007B68072B0FD07B68062B0CD07B68052B43
:1006C00009D07B68042B06D07B68032B03D0A421C0
:1006D000044803F0D3FD7868FFF738FF00BF083700
:1006E000BD4680BDF44E000880B586B000AF03461D
:1006F000B9607A60FB7300237B617B680F2B03D9A1
:10070000BC210E4803F0BAFDBB680F2B03D9BD21F5
:100710000A4803F0B3FDFFF73DFF78617A68B968D6
:100720007869FFF76FFF024697F90F3011461846B8
:10073000FFF73EFF00BF1837BD4680BDF44E0008EE
:1007400080B582B000AF78607868FFF78BFF034612
:1007500018460837BD4680BD80B582B000AF7860CE
:100760007B68042B07D07B68002B04D040F2B311C8
:100770000B4803F083FD7B68042B06D1094A094B23
:100780001B6843F00403136005E0064A054B1B6831
:1007900023F00403136000BF0837BD4680BD00BFCF
:1007A000F44E000810E000E080B500AF00F002F861
:1007B00000BF80BD80B400AF00BFBD4680BC7047A5
:1007C00080B588B000AF7860396000237B6100237A
:1007D0003B610023BB617B68424A93422BD07B681C
:1007E000414A934227D07B68404A934223D07B689A
:1007F0003F4A93421FD07B683E4A93421BD07B689E
:100800003D4A934217D07B683C4A934213D07B68A1
:100810003B4A93420FD07B683A4A93420BD07B68A5
:10082000394A934207D07B68384A934203D0C521A6
:10083000374803F023FD3B681B689BB2002B03D1B4
:10084000C621334803F01AFD3B685B68002B35D0A6
:100850003B685B68012B31D03B685B68112B2DD066
:100860003B685B68022B29D03B685B68122B25D064
:100870003B685B68274A934220D03B685B68264A06
:1008800093421BD03B685B68244A934216D03B6876
:100890005B68234A934211D03B685B68214A9342CC
:1008A0000CD03B685B68204A934207D03B685B688A
:1008B000032B03D0C721164803F0E0FC3B689B687C
:1008C000002B0BD03B689B68012B07D03B689B68D3
:1008D000022B03D0C8210E4803F0D0FC0023FB619B
:1008E00087E200BF0000024000040240000802400E
:1008F000000C0240001002400014024000180240A8
:10090000001C024000200240002402400028024057
:10091000244F0008000011100000211000003110C9
:100920000000121000002210000032100122FB69AA
:1009300002FA03F37B613B681A687B6913403B61F1
:100940003A697B699A4240F051823B685B68022BAE
:1009500004D03B685B68122B40F0DF803B681B696A
:10096000002B00F0B6803B681B69092B00F0B180BA
:100970003B681B69002B00F0AC803B681B69002BB7
:1009800000F0A7803B681B69002B00F0A2803B6849
:100990001B69002B00F09D803B681B69012B00F058
:1009A00098803B681B69012B00F093803B681B69B2
:1009B000022B00F08E803B681B69022B00F08980BF
:1009C0003B681B69022B00F084803B681B69032B8A
:1009D0007FD03B681B69042B7BD03B681B69042BD1
:1009E00077D03B681B69042B73D03B681B69052BD0
:1009F0006FD03B681B69052B6BD03B681B69092BCB
:100A000067D03B681B69062B63D03B681B69092BC9
:100A10005FD03B681B69072B5BD03B681B69072BCA
:100A200057D03B681B69072B53D03B681B69082BC9
:100A30004FD03B681B69082B4BD03B681B69082BC8
:100A400047D03B681B69092B43D03B681B69092BC6
:100A50003FD03B681B690A2B3BD03B681B690A2BC4
:100A600037D03B681B690B2B33D03B681B690C2BC1
:100A70002FD03B681B690C2B2BD03B681B690D2BBF
:100A800027D03B681B690F2B23D03B681B69052BC4
:100A90001FD03B681B69052B1BD03B681B69052BCE
:100AA00017D03B681B69082B13D03B681B69082BC8
:100AB0000FD03B681B690C2B0BD03B681B69062BC6
:100AC00007D03B681B690E2B03D0D921884803F05F
:100AD000D5FBFB69DA087B68083253F82230BB612A
:100AE000FB6903F007039B000F2202FA03F3DB43C9
:100AF000BA691340BB613B681A69FB6903F00703DD
:100B00009B0002FA03F3BA691343BB61FB69DA087D
:100B10007B680832B96943F822107B681B68BB61A7
:100B2000FB695B00032202FA03F3DB43BA6913405B
:100B3000BB613B685B6803F00302FB695B0002FA80
:100B400003F3BA691343BB617B68BA691A603B68F7
:100B50005B68012B0BD03B685B68022B07D03B68BE
:100B60005B68112B03D03B685B68122B44D13B6858
:100B7000DB68002B0FD03B68DB68012B0BD03B6898
:100B8000DB68022B07D03B68DB68032B03D0EC212A
:100B9000574803F073FB7B689B68BB61FB695B0094
:100BA000032202FA03F3DB43BA691340BB613B68DB
:100BB000DA68FB695B0002FA03F3BA691343BB61AD
:100BC0007B68BA699A607B685B68BB610122FB69DC
:100BD00002FA03F3DB43BA691340BB613B685B680D
:100BE0001B0903F00102FB6902FA03F3BA6913431C
:100BF000BB617B68BA695A607B68DB68BB61FB6973
:100C00005B00032202FA03F3DB43BA691340BB61C2
:100C10003B689A68FB695B0002FA03F3BA69134305
:100C2000BB617B68BA69DA603B685B6803F080533C
:100C3000002B00F0DB800023FB602E4A2D4B5B6C09
:100C400043F4804353642B4B5B6C03F48043FB60A1
:100C5000FB68294AFB699B08023352F82330BB61C9
:100C6000FB6903F003039B000F2202FA03F3DB434B
:100C7000BA691340BB617B68204A934252D07B68BB
:100C80001F4A934231D07B681E4A93422BD07B6827
:100C90001D4A934225D07B681C4A93421FD07B6833
:100CA0001B4A934219D07B681A4A934213D07B683F
:100CB000194A93420DD07B68184A934207D07B684B
:100CC000174A934201D109232DE00A232BE0082380
:100CD00029E0072327E0062325E0052323E004235A
:100CE00021E003231FE002231DE001231BE000BFDE
:100CF000244F000800380240003801400000024044
:100D00000004024000080240000C024000100240B3
:100D10000014024000180240001C02400020024063
:100D2000002402400023FA6902F00302920093407B
:100D3000BA691343BB613349FB699B080233BA6943
:100D400041F82320304B1B68BB613B69DB43BA6928
:100D50001340BB613B685B6803F48033002B03D016
:100D6000BA693B691343BB61274ABB691360264BD1
:100D70005B68BB613B69DB43BA691340BB613B689D
:100D80005B6803F40033002B03D0BA693B6913435B
:100D9000BB611D4ABB6953601B4B9B68BB613B69D0
:100DA000DB43BA691340BB613B685B6803F48013A3
:100DB000002B03D0BA693B691343BB61124ABB697C
:100DC0009360114BDB68BB613B69DB43BA6913403D
:100DD000BB613B685B6803F40013002B03D0BA6966
:100DE0003B691343BB61084ABB69D360FB690133AC
:100DF000FB61FB690F2B7FF699AD00BF2037BD4625
:100E000080BD00BF00380140003C014080B582B089
:100E100000AF78600B467B8013467B707B88002B8D
:100E200004D140F2B1110E4803F028FA7B78002B70
:100E300007D07B78012B04D04FF4D971084803F018
:100E40001DFA7B78002B03D07A887B689A6103E0D7
:100E50007B881A047B689A6100BF0837BD4680BD55
:100E6000244F000880B584B000AF78600023FB6099
:100E70000023BB607B68002B01D1012346E17B6826
:100E80001B68A44A93420ED07B681B68A24A934217
:100E900009D07B681B68A14A934204D04FF4B87113
:100EA0009F4803F0EBF97B685B68002B04D07B68FC
:100EB0005B689C4A934204D940F27111984803F050
:100EC000DDF97B689B68002B09D07B689B68B3F5D4
:100ED000804F04D04FF4B971914803F0CFF97B688B
:100EE000DB6823F47F7323F00303002B04D040F26C
:100EF00073118B4803F0C2F97B681B69B3F5804F0F
:100F000009D07B681B69B3F5404F04D04FF4BA7128
:100F1000834803F0B3F97B685B69002B08D07B68DA
:100F20005B69012B04D040F275117D4803F0A6F9EE
:100F30007B689B6923F0FE03002B04D04FF4BB7148
:100F4000774803F09BF97B68DB69002B08D07B684E
:100F5000DB69402B04D040F27711714803F08EF921
:100F60007B681B6A002B08D07B681B6A802B04D02F
:100F70004FF4BC716A4803F081F97B6893F83D3007
:100F8000DBB2002B06D17B68002283F83C20786816
:100F900003F0B0F97B68242283F83D207B681B684E
:100FA0007A681268126822F001021A6001F0BAF938
:100FB000B860BB685C4AA2FB03239B0CFB607B68A8
:100FC0001B68FA685A607B681A687B685B685749D7
:100FD0008B4202D8FB68013309E0FB684FF496713D
:100FE00001FB03F35249A1FB03139B090133136275
:100FF0007B6819687B685B684C4A934212D87B68AF
:101000005B685B00BA68B2FBF3F3C3F30B03032B1B
:1010100006D97B685B685B00BA68B2FBF3F345E016
:10102000042343E07B689B68002B0FD17B685A68E0
:1010300013465B001344BA68B2FBF3F3C3F30B032C
:10104000002B0CBF01230023DBB210E07B685A6841
:1010500013469B0013449A001344BA68B2FBF3F39F
:10106000C3F30B03002B0CBF01230023DBB2002BC7
:1010700001D001231AE07B689B68002B0AD17B68B2
:101080005A6813465B001344BA68B2FBF3F343F4A7
:1010900000430BE07B685A6813469B0013449A0098
:1010A0001344BA68B2FBF3F343F44043CB617B686B
:1010B0001B687A68D1697A68126A0A431A607B6889
:1010C0001B687A6811697A68D2680A439A607B68FB
:1010D0001B687A6851697A6892690A43DA607B68AA
:1010E0001B687A681268126842F001021A607B6815
:1010F00000221A647B68202283F83D207B6800224E
:101100001A637B68002283F83E20002318461037BC
:10111000BD4680BD0054004000580040005C0040C7
:10112000544F0008801A060083DE1B43A08601008E
:10113000D34D621080B584B000AF78600023FB60AF
:101140000023BB607B68002B01D1012354E17B6845
:101150001B689D4A934203D0AC219C4803F08EF853
:101160007B685B69B3F5805F03D3AD21974803F0DB
:1011700085F87B689B69B3F5006F03D3AE21934874
:1011800003F07CF87B68DB69B3F5805F03D3AF21A4
:101190008E4803F073F87B681B6AB3F5006F03D3C6
:1011A000B0218A4803F06AF87B689B6AB3F5006F48
:1011B00003D3B121854803F061F87B685B6AB3F51E
:1011C000805F03D3B221814803F058F87B681B6B22
:1011D000B3F5006F03D3B3217C4803F04FF87B686D
:1011E000DB6AB3F5805F03D3B421784803F046F897
:1011F0007B685B68002B08D07B685B68B3F1004FAD
:1012000003D0B521714803F039F87B689B68002B47
:1012100008D07B689B68B3F1804F03D0B6216B4840
:1012200003F02CF87B68DB68002B08D07B68DB6858
:10123000B3F1005F03D0B721644803F01FF87B6867
:101240001B69002B08D07B681B69B3F1805F03D05A
:10125000B8215E4803F012F87B6893F8A130DBB246
:10126000002B06D17B68002283F8A020786803F069
:1012700087F87B68022283F8A1207B681B687A6864
:101280001268926922F070429A617B681B687A68E2
:10129000126891697A6850687A68926810437A682F
:1012A000D26810437A68126902430A439A617B68E4
:1012B0001A687B681B689968454B0B4093607B6894
:1012C0005B691B04FB607B681B687A681268916825
:1012D0007A689069FA6802430A439A607B681A68E0
:1012E0007B681B68D9683A4B0B40D3607B68DB692D
:1012F0001B04FB607B681B687A681268D1687A6897
:10130000106AFA6802430A43DA607B681A687B68ED
:101310001B6819692E4B0B4013617B685B6A1B04C9
:10132000FB607B681B687A68126811697A68906A4A
:10133000FA6802430A431A617B681A687B681B6873
:101340005969234B0B4053617B68DB6A1B04FB60CC
:101350007B681B687A68126851697A68106BFA6852
:1013600002430A435A617B6893F835301B02FB60E5
:101370007B6893F836301B04BB607B681B687A6817
:101380001268D26A02F07F42DA627B681B687A6870
:101390001268D16AB868FA680243786890F8340035
:1013A00002430A43DA627B681B687A681268526BF0
:1013B00042F004025A637B681B687A681268526BB9
:1013C00042F0020206E000BF00680140804F0008C2
:1013D00000F800F05A637B681B687A6812689269AB
:1013E00042F001029A617B680022C3F8A4207B6866
:1013F000012283F8A120002318461037BD4680BD86
:10140000B0B584B000AFF860B9607A60FB6893F85B
:10141000A030012B01D10223BAE0FB68012283F83E
:10142000A020FB68022283F8A1207B68022B04D94C
:1014300040F20221584802F021FFBB681B69002BD3
:1014400020D0BB681B69012B1CD0BB681B69022B19
:1014500018D0BB681B69032B14D0BB681B69042B15
:1014600010D0BB681B69052B0CD0BB681B69062B11
:1014700008D0BB681B69072B04D040F20321464803
:1014800002F0FCFEBB68DB69B3F5806F09D0BB6876
:10149000DB69B3F5C06F04D04FF401713E4802F030
:1014A000EDFEBB681B6A052B08D0BB681B6A072BC7
:1014B00004D040F20521384802F0E0FEBB681B680A
:1014C000B3F5805F04D340F20621334802F0D6FE24
:1014D000BB685B68B3F5803F04D340F207212E4818
:1014E00002F0CCFEBB689B68B3F5805F04D34FF479
:1014F0000271294802F0C2FEBB68DB68B3F5803F89
:1015000004D340F20921244802F0B8FEBB689B696D
:10151000FF2B04D940F20A211F4802F0AFFEBB683E
:101520009B6AB3F5005F04D340F20B211A4802F026
:10153000A5FEBB68DB6AB3F5006F04D34FF40371FB
:10154000154802F09BFEFA687B68342101FB03F327
:10155000134403F13802BB6814461D460FCD0FC477
:101560000FCD0FC40FCD0FC42B6823607A68B96804
:10157000F86800F013F8FB681B6801225A62FB68E8
:10158000012283F8A120FB68002283F8A020002319
:1015900018461037BD46B0BD804F000880B489B0F2
:1015A00000AFF860B9607A600023FB610023BB6183
:1015B00000237B61BB685A68FB681B68D968974B3E
:1015C0000B401B0C13441B04FB61FB681B681A4691
:1015D0007B68DB01134484331A46FB681B68194699
:1015E0007B68DB010B4484335B6803F47043536016
:1015F000FB681B681A467B68DB011344843318467A
:10160000BB681A68FB681B68D968844B0B401B0CCD
:1016100013445A1CFB6913434360BB68DA68FB68D8
:101620001B68DB68C3F30A0313441B04FB61FB68FC
:101630001B681A467B68DB01134484331A46FB6837
:101640001B6819467B68DB010B4484339B6803F4F9
:1016500070439360FB681B681A467B68DB01134488
:1016600084331946BB689A68FB681B68DB68C3F360
:101670000A0313445A1CFB6913438B60FB681B6805
:101680001A467B68DB01134484331A46FB681B68E7
:1016900019467B68DB010B4484331B6923F0070385
:1016A0001361FB681B681A467B68DB0113448433B3
:1016B0001A46BB681B691361BB6893F831301B0283
:1016C000FB61BB6893F832301B04BB61BB689B694C
:1016D0001B067B61FB681B681A467B68DB011344B1
:1016E00084339B69FB681B681A467B68DB011344E3
:1016F00084331A4600239361FB681B681A467B6893
:10170000DB01134484331946BB6893F830301A4622
:10171000FB691A43BB691A437B6913438B61FB68FE
:101720001B681A467B68DB01134484331A46FB6846
:101730001B6819467B68DB010B4484335B6923F02B
:10174000FF035361FB681B681A467B68DB01134487
:1017500084331A46BB685B695361FB681B681A4691
:101760007B68DB01134484331A46FB681B68194607
:101770007B68DB010B448433DB6923F4E06323F0F3
:101780000703D361FB681B681A467B68DB011344BF
:1017900084331946BB68DA69BB681B6A1343CB61A3
:1017A000FB681B681A467B68DB01134484339B6A21
:1017B000FB681B681A467B68DB01134484331A46B6
:1017C00000239362FB681B681A467B68DB011344A5
:1017D00084331A46BB685B6A9362BB681B69002B43
:1017E00002D10423FB611DE0BB681B69012B02D100
:1017F0000323FB6116E0BB681B69042B0BD0BB689D
:101800001B69022B07D0BB681B69032B03D0BB6885
:101810001B69072B04D10223FB6103E00000FF0FCB
:101820000123FB61FB681B681A467B68DB011344DC
:1018300084331A46FB681B6819467B68DB010B443E
:101840008433DB6A03F0E023D362FB681B681A462B
:101850007B68DB01134484331846BB689B6AFA69D2
:1018600002FB03F31A04BB685968BB681B68CB1AF8
:10187000F96901FB03F303331343C362FB681B687D
:101880001A467B68DB01134484331A46FB681B68E5
:1018900019467B68DB010B4484331B6B23F4FF6325
:1018A00023F007031363FB681B681A467B68DB01A0
:1018B000134484331A46BB68DB6A1363FB681B68F6
:1018C0001A467B68DB01134484331A46FB681B68A5
:1018D00019467B68DB010B4484331B6843F001032A
:1018E000136000BF2437BD4680BC704780B58EB002
:1018F00000AF786000237B637B681B680F2B03D9E4
:10190000F5219E4802F0BAFC7B681B6803F00103D6
:10191000002B5FD07B685B68002B0BD07B685B681B
:10192000012B07D07B685B68052B03D0FA21934815
:1019300002F0A4FC924B9B6803F00C03042B0BD029
:101940008F4B9B6803F00C03082B11D18C4B5B6809
:1019500003F48003002B0BD0894B1B6803F4003386
:10196000002B36D07B685B68002B32D1012377E2F5
:10197000844A7B685B68DBB213707B685B68002B12
:1019800013D0FEF7D9FD786308E0FEF7D5FD0246D7
:101990007B6BD31A642B01D9032361E2784B1B685C
:1019A00003F40033002BF0D014E0FEF7C5FD78639C
:1019B00008E0FEF7C1FD02467B6BD31A642B01D908
:1019C00003234DE26E4B1B6803F40033002BF0D170
:1019D00000E000BF7B681B6803F00203002B00F0EF
:1019E0008E807B68DB68002B08D07B68DB68012B6E
:1019F00004D04FF49671614802F040FC7B681B698B
:101A00001F2B04D940F22D115C4802F037FC5C4BCF
:101A10009B6803F00C03002B0BD0594B9B6803F021
:101A20000C03082B26D1564B5B6803F48003002B74
:101A300020D1534B1B6803F00203002B05D07B68B9
:101A4000DB68012B01D001230AE24D484C4B1B6897
:101A500023F0F8027B681969F8233B623B6A93FA2A
:101A6000A3F3FB61FB69B3FA83F301FA03F31343B6
:101A7000036044E07B68DB68002B2AD0424B0122E4
:101A80001A60FEF759FD786308E0FEF755FD02463F
:101A90007B6BD31A022B01D90323E1E1384B1B687E
:101AA00003F00203002BF0D03548354B1B6823F0C0
:101AB000F8027B681969F823FB62FB6A93FAA3F3C7
:101AC000BB61BB69B3FA83F301FA03F31343036009
:101AD00015E02D4B00221A60FEF72EFD786308E01A
:101AE000FEF72AFD02467B6BD31A022B01D9032392
:101AF000B6E1234B1B6803F00203002BF0D17B6897
:101B00001B6803F00803002B48D07B685B69002B3F
:101B100008D07B685B69012B04D040F26D11174837
:101B200002F0ACFB7B685B69002B16D0174B0122DF
:101B30001A60FEF701FD786308E0FEF7FDFC02463F
:101B40007B6BD31A022B01D9032389E10C4B5B6F0A
:101B500003F00203002BF0D020E00C4B00221A60AF
:101B6000FEF7EAFC786313E0FEF7E6FC02467B6BC7
:101B7000D31A022B0CD9032372E100BFC04F000817
:101B8000003802400238024000004742800E4742BF
:101B9000A94B5B6F03F00203002BE5D17B681B6848
:101BA00003F00403002B6BD07B689B68002B0CD0E8
:101BB0007B689B68012B08D07B689B68052B04D051
:101BC00040F297119D4802F059FB0023BB609A4AEE
:101BD000994B1B6C43F080531364974B1B6C03F0C1
:101BE0008053BB60BB68964A954B1B6843F4807377
:101BF0001360FEF7A1FC786308E0FEF79DFC024647
:101C00007B6BD31A022B01D9032329E18C4B1B6870
:101C100003F48073002BF0D08A4A7B689B68DBB2A8
:101C200013707B689B68002B15D0FEF785FC7863EA
:101C30000AE0FEF781FC02467B6BD31A41F2883240
:101C4000934201D903230BE17B4B1B6F03F002038B
:101C5000002BEED014E0FEF76FFC78630AE0FEF78D
:101C60006BFC02467B6BD31A41F28832934201D956
:101C70000323F5E0704B1B6F03F00203002BEED142
:101C80007B689B69002B0CD07B689B69012B08D07B
:101C90007B689B69022B04D04FF4E671674802F021
:101CA000EDFA7B689B69002B00F0D980624B9B6842
:101CB00003F00C03082B00F0D0807B689B69022B9B
:101CC00040F0AA807B68DB69002B09D07B68DB6968
:101CD000B3F5800F04D040F2D511584802F0CEFA87
:101CE0007B681B6A3F2B04D94FF4EB71534802F019
:101CF000C5FA7B685B6A312B04D97B685B6AB3F5F4
:101D0000D87F04D940F2D7114C4802F0B7FA7B686B
:101D10009B6A022B10D07B689B6A042B0CD07B68DB
:101D20009B6A062B08D07B689B6A082B04D04FF473
:101D3000EC71424802F0A2FA7B68DB6A032B03D9FC
:101D40007B68DB6A0F2B04D940F2D9113B4802F0C3
:101D500095FA3D4B00221A60FEF7EEFB786308E02F
:101D6000FEF7EAFB02467B6BD31A022B01D9032351
:101D700076E0314B1B6803F00073002BF0D12E4846
:101D80007B68DA697B681B6A1A437B68596A47F685
:101D9000C073BB62BB6A93FAA3F3FB60FB68B3FA40
:101DA00083F301FA03F31A437B689B6A5B08591EAD
:101DB0004FF440337B627B6A93FAA3F33B613B6948
:101DC000B3FA83F301FA03F31A437B68D96A4FF03D
:101DD00070633B633B6B93FAA3F37B617B69B3FA5C
:101DE00083F301FA03F313434360174B01221A6094
:101DF000FEF7A2FB786308E0FEF79EFB02467B6BD2
:101E0000D31A022B01D903232AE00B4B1B6803F0E2
:101E10000073002BF0D022E00B4B00221A60FEF77B
:101E20008BFB786312E0FEF787FB02467B6BD31ACD
:101E3000022B0BD9032313E000380240C04F0008E7
:101E4000007000407038024060004742064B1B683B
:101E500003F00073002BE6D101E0012300E0002332
:101E600018463837BD4680BD0038024080B586B080
:101E700000AF7860396000237B617B681B68002BB2
:101E800003D07B681B680F2B04D940F237219D4893
:101E900002F0F4F93B68002B31D03B68012B2ED0C7
:101EA0003B68022B2BD03B68032B28D03B68042BCC
:101EB00025D03B68052B22D03B68062B1FD03B6802
:101EC000072B1CD03B68082B19D03B68092B16D078
:101ED0003B680A2B13D03B680B2B10D03B680C2BB4
:101EE0000DD03B680D2B0AD03B680E2B07D03B680A
:101EF0000F2B04D04FF40E71824802F0BFF9824BD1
:101F00001B6803F00F023B689A420CD27E4B3A6882
:101F1000D2B21A707C4B1B6803F00F023B689A42E6
:101F200001D0012369E17B681B6803F00203002BE9
:101F300031D07B689B68002B24D07B689B68802B0A
:101F400020D07B689B68902B1CD07B689B68A02B63
:101F500018D07B689B68B02B14D07B689B68C02B23
:101F600010D07B689B68D02B0CD07B689B68E02BE3
:101F700008D07B689B68F02B04D040F24F21614869
:101F800002F07CF96149614B9B6823F0F0027B68A9
:101F90009B6813438B607B681B6803F00103002B75
:101FA00000F09B807B685B68002B10D07B685B68CF
:101FB000012B0CD07B685B68022B08D07B685B68C8
:101FC000032B04D040F256214E4802F057F97B68AB
:101FD0005B68012B07D14D4B1B6803F40033002BCA
:101FE00019D1012309E17B685B68022B03D07B6870
:101FF0005B68032B07D1454B1B6803F00073002B74
:1020000009D10123F9E0414B1B6803F00203002BC7
:1020100001D10123F1E03D493C4B9B6823F00302D1
:102020007B685B6813438B60FEF786FA78617B6898
:102030005B68012B12D10AE0FEF77EFA02467B694B
:10204000D31A41F28832934201D90323D5E02F4BB2
:102050009B6803F00C03042BEED13EE07B685B68C9
:10206000022B12D10AE0FEF767FA02467B69D31A07
:1020700041F28832934201D90323BEE0234B9B688F
:1020800003F00C03082BEED127E07B685B68032B81
:102090001DD10AE0FEF750FA02467B69D31A41F2DD
:1020A0008832934201D90323A7E0184B9B6803F0C1
:1020B0000C030C2BEED110E0FEF73EFA02467B69D2
:1020C000D31A41F28832934201D9032395E00F4B92
:1020D0009B6803F00C03002BEED10B4B1B6803F045
:1020E0000F023B689A4213D9074B3A68D2B21A7072
:1020F000054B1B6803F00F023B689A4208D001238E
:102100007BE000BFC04F0008003C024000380240A6
:102110007B681B6803F00403002B25D07B68DB6819
:10212000002B18D07B68DB68B3F5805F13D07B6829
:10213000DB68B3F5A05F0ED07B68DB68B3F5C05FEA
:1021400009D07B68DB68B3F5E05F04D04FF42D71F4
:102150002C4802F093F82C492B4B9B6823F4E05257
:102160007B68DB6813438B607B681B6803F00803A4
:10217000002B26D07B681B69002B18D07B681B695D
:10218000B3F5805F13D07B681B69B3F5A05F0ED0F9
:102190007B681B69B3F5C05F09D07B681B69B3F529
:1021A000E05F04D040F2BB21164802F067F8164900
:1021B000154B9B6823F460427B681B69DB0013436B
:1021C0008B6000F027F801460F4B9B6803F0F0028C
:1021D000F0233B613B6993FAA3F3FB60FB68B3FA1E
:1021E00083F322FA03F3094AD35C21FA03F3084A82
:1021F00013600020FEF776F9002318461837BD4615
:1022000080BD00BFC04F000800380240B04F00083A
:102210000C00002080B48BB000AF0023FB610023D2
:102220007B620023BB6100233B62364B9B6803F05B
:102230000C03042B06D0082B07D0002B58D1324BAF
:102240003B6258E0314B3B6255E02E4B5B6803F03C
:102250003F03FB612B4B5B6803F48003002B17D01B
:102260002A4AFB69B2FBF3F2264B596847F6C07362
:102270000B4047F6C071F960F96891FAA1F1B960B5
:10228000B968B1FA81F1CB4003FB02F37B6216E03F
:102290001D4AFB69B2FBF3F21A4B596847F6C0734B
:1022A0000B4047F6C0717961796991FAA1F17960C3
:1022B0007968B1FA81F1CB4003FB02F37B62114BE9
:1022C0005B6803F440324FF440333B613B6993FA5F
:1022D000A3F33B603B68B3FA83F322FA03F30133C1
:1022E0005B00BB617A6ABB69B2FBF3F33B6202E05D
:1022F000054B3B6200BF3B6A18462C37BD4680BC8D
:10230000704700BF003802400024F40000127A0039
:1023100080B400AF024B1B681846BD4680BC7047B6
:102320000C00002080B582B000AFFFF7F1FF01463E
:102330000B4B9B6803F4E0524FF4E0537B607B68E7
:1023400093FAA3F33B603B68B3FA83F322FA03F3F7
:10235000044AD35C21FA03F318460837BD4680BD12
:1023600000380240B04F000880B582B000AFFFF7E0
:10237000CFFF01460B4B9B6803F460424FF4604370
:102380007B607B6893FAA3F33B603B68B3FA83F30B
:1023900022FA03F3044AD35C21FA03F31846083700
:1023A000BD4680BD00380240B04F000880B59CB0EB
:1023B00000AF78600023FB660023BB667B681B6868
:1023C000002B03D07B681B687F2B04D94FF4CA61B4
:1023D000784801F053FF7B681B6803F00103002B72
:1023E00006D17B681B6803F00203002B00F0B78066
:1023F0007B685B68312B04D97B685B68B3F5D87F59
:1024000004D940F25A616B4801F038FF6A4B002250
:102410001A60FEF791F8F86608E0FEF78DF80246BC
:10242000FB6ED31A022B01D9032356E3634B1B68BF
:1024300003F00063002BF0D17B681B6803F00103FD
:10244000002B2BD07B689B68012B03D97B689B6892
:10245000072B04D94FF4CE61564801F00FFF5748BF
:102460007B685A6847F6C0733B663B6E93FAA3F3EA
:102470007B637B6BB3FA83F39A407B6899684FF078
:10248000E043FB63FB6B93FAA3F3BB63BB6BB3FA51
:1024900083F301FA03F31343C0F884307B681B68AD
:1024A00003F00203002B44D07B68DB68012B03D9C7
:1024B0007B68DB680F2B04D940F27D613D4801F059
:1024C000DDFE7B68DB69002B03D07B68DB69202B9A
:1024D00004D940F27E61374801F0D0FE374BD3F883
:1024E000843003F0E0424FF0E0437B667B6E93FA6A
:1024F000A3F33B633B6BB3FA83F322FA03F3BB66AC
:102500002E497B685B689A017B68DB681B061A436F
:10251000BB6E1B071343C1F884302849274BD3F8FF
:102520008C3023F01F027B68DB69013B1343C1F849
:102530008C30214B01221A60FDF7FEFFF86608E09F
:10254000FDF7FAFF0246FB6ED31A022B01D90323D3
:10255000C3E21A4B1B6803F00063002BF0D07B68CA
:102560001B6803F00403002B06D17B681B6803F093
:102570000803002B00F02A817B681B69312B04D9EA
:102580007B681B69B3F5D87F04D940F2A361094881
:1025900001F074FE0A4B00221A60FDF7CDFFF866C9
:1025A00010E0FDF7C9FF0246FB6ED31A022B09D9D2
:1025B000032392E2EC4F00086800474200380240D3
:1025C000700047427B4B1B6803F00053002BE8D19F
:1025D0007B681B6803F00403002B65D07B685B6994
:1025E000012B03D97B685B690F2B04D94FF4D761AA
:1025F000714801F043FE7B681B6A002B03D07B68A7
:102600001B6A202B04D940F2B9616B4801F036FEF9
:10261000684BD3F8883003F0E0424FF0E0437B652D
:102620007B6D93FAA3F33B623B6AB3FA83F322FA1E
:1026300003F3BB665F487B681A6947F6C0733B6566
:102640003B6D93FAA3F37B627B6AB3FA83F39A4000
:102650007B6859694FF07063FB64FB6C93FAA3F3DA
:10266000BB62BB6AB3FA83F301FA03F31A434FF078
:10267000E043FB65FB6D93FAA3F3FB62FB6AB3FADD
:1026800083F3B96E01FA03F31343C0F88830494964
:10269000484BD3F88C3023F4F8527B681B6A013B1B
:1026A0001B021343C1F88C307B681B6803F00803DE
:1026B000002B6ED07B689B69012B03D97B689B69DB
:1026C000072B04D94FF4D9613B4801F0D7FD7B6853
:1026D0005B6A002B13D07B685B6AB3F5803F0ED03A
:1026E0007B685B6AB3F5003F09D07B685B6AB3F532
:1026F000403F04D040F2C9612F4801F0BFFD2D4B8F
:10270000D3F8883003F070624FF07063BB64BB6C29
:1027100093FAA3F33B613B69B3FA83F322FA03F321
:10272000BB6624487B681A6947F6C0737B647B6C80
:1027300093FAA3F37B617B69B3FA83F39A404FF07A
:1027400070633B643B6C93FAA3F3BB61BB69B3FA60
:1027500083F3B96E01FA03F31A437B6899694FF06A
:10276000E043BB65BB6D93FAA3F3FB61FB69B3FA6E
:1027700083F301FA03F31343C0F888300D490D4B7E
:10278000D3F88C3023F440327B685B6A1343C1F882
:102790008C300A4B01221A60FDF7CEFEF8660FE07E
:1027A000FDF7CAFE0246FB6ED31A022B08D903239B
:1027B00093E100BF00380240EC4F00087000474230
:1027C000964B1B6803F00053002BE9D07B681B6815
:1027D00003F02003002B00F074817B689B6AB3F543
:1027E000807F00F0A6807B689B6AB3F5007F00F0D5
:1027F000A0807B689B6A8A4A934200F09A807B683B
:102800009B6A884A934200F094807B689B6A864A60
:10281000934200F08E807B689B6A844A934200F06A
:1028200088807B689B6A824A934200F082807B6842
:102830009B6A804A93427CD07B689B6A7E4A934223
:1028400077D07B689B6A7D4A934272D07B689B6A93
:102850007B4A93426DD07B689B6A7A4A934268D0E8
:102860007B689B6A784A934263D07B689B6A774A0D
:1028700093425ED07B689B6A754A934259D07B68CD
:102880009B6A744A934254D07B689B6A724A934213
:102890004FD07B689B6A714A93424AD07B689B6A9F
:1028A0006F4A934245D07B689B6A6E4A934240D000
:1028B0007B689B6A6C4A93423BD07B689B6A6B4AFD
:1028C000934236D07B689B6A694A934231D07B68D9
:1028D0009B6A684A93422CD07B689B6A664A934203
:1028E00027D07B689B6A654A934222D07B689B6AAB
:1028F000634A93421DD07B689B6A624A934218D018
:102900007B689B6A604A934213D07B689B6A5F4AEC
:1029100093420ED07B689B6A5D4A934209D07B68E4
:102920009B6A5C4A934204D04FF4DD615A4801F03F
:10293000A5FC0023FB60394A384B1B6C43F08053E5
:102940001364364B1B6C03F08053FB60FB68534AE7
:10295000524B1B6843F480731360FDF7EDFDF8667E
:1029600008E0FDF7E9FD0246FB6ED31A022B01D900
:102970000323B2E0494B1B6803F48073002BF0D0B3
:10298000264B1B6F03F44073BB66BB6E002B2FD02E
:102990007B689B6A03F44072BB6E9A4228D01F4B3F
:1029A0001B6F23F44073BB663D4B01221A603C4B06
:1029B00000221A60194ABB6E1367184B1B6F03F095
:1029C0000103002B14D0FDF7B7FDF8660AE0FDF710
:1029D000B3FD0246FB6ED31A41F28832934201D90D
:1029E00003237AE00D4B1B6F03F00203002BEED0A4
:1029F0007B689B6A03F44073B3F5407F52D107496B
:102A0000064B9B6823F4F8127B689B6A23F07043A3
:102A100023F4407313438B604AE000BF0038024048
:102A2000000302000003030000030400000305008C
:102A3000000306000003070000030800000309006C
:102A400000030A0000030B0000030C0000030D004C
:102A500000030E0000030F0000031000000311002C
:102A6000000312000003130000031400000315000C
:102A700000031600000317000003180000031900EC
:102A800000031A0000031B0000031C0000031D00CC
:102A900000031E0000031F00EC4F00080070004000
:102AA000400E47420F4A0F4B9B6823F4F813936084
:102AB0000C490C4B1A6F7B689B6AC3F30B031343DF
:102AC0000B677B681B6803F01003002B04D0064AD9
:102AD0007B6893F82C301360002318467037BD468E
:102AE00080BD00BF00380240E011474280B582B08F
:102AF00000AF786039607B68002B01D1012325E0AD
:102B00007B6893F82C30DBB2002B06D17B68002267
:102B100083F82D20786800F01DF87B68022283F886
:102B20002C207B681A687B6804331946104600F035
:102B30008BFC7B6818687B685B681A46396800F014
:102B4000A7FD7B68012283F82C2000231846083754
:102B5000BD4680BD80B483B000AF786000BF0C3745
:102B6000BD4680BC704700BF80B582B000AF7860C2
:102B70007B68002B01D1012317E17B681B688D4A1C
:102B800093421DD07B681B688B4A934218D07B68A8
:102B90001B688A4A934213D07B681B68884A934219
:102BA0000ED07B681B68874A934209D07B681B68FC
:102BB000854A934204D040F20B11844801F05EFB39
:102BC0007B685B68002B09D07B685B68B3F5827F0C
:102BD00004D04FF486717D4801F050FB7B689B6800
:102BE000002B0ED07B689B68B3F5806F09D07B68A3
:102BF0009B68B3F5004F04D040F20D11734801F00B
:102C00003DFB7B68DB68B3F5006F08D07B68DB6851
:102C1000002B04D04FF487716C4801F02FFB7B68C8
:102C20009B69B3F5007F0DD07B689B69002B09D0B1
:102C30007B689B69B3F5802F04D040F20F11634885
:102C400001F01CFB7B68DB69002B20D07B68DB6913
:102C5000082B1CD07B68DB69102B18D07B68DB69E4
:102C6000182B14D07B68DB69202B10D07B68DB69C4
:102C7000282B0CD07B68DB69302B08D07B68DB69A4
:102C8000382B04D04FF48871504801F0F7FA7B6874
:102C90001B6A002B08D07B681B6A802B04D040F293
:102CA00011114A4801F0EAFA7B685B6A002B08D0F0
:102CB0007B685B6A102B04D04FF48971434801F0A4
:102CC000DDFA7B685B6A002B19D17B681B69002BDE
:102CD00008D07B681B69022B04D040F215113B48D9
:102CE00001F0CCFA7B685B69002B08D07B685B69DC
:102CF000012B04D04FF48B71344801F0BFFA7B688C
:102D000000229A627B6893F85130DBB2002B06D127
:102D10007B68002283F85020786801F0E3FB7B6831
:102D2000022283F851207B681B687A681268126857
:102D300022F040021A607B681B687A6851687A68E2
:102D4000926811437A68D26811437A681269114314
:102D50007A68526911437A68926902F400721143E9
:102D60007A68D26911437A68126A11437A68926A62
:102D70000A431A607B681B687A689269120C02F039
:102D800004017A68526A0A435A607B681B687A6851
:102D90001268D26922F40062DA617B6800225A6507
:102DA0007B68012283F85120002318460837BD466E
:102DB00080BD00BF0030014000380040003C0040B2
:102DC0000034014000500140005401401C500008F4
:102DD00080B582B000AF78607B68002B01D1012301
:102DE000BCE07B689B69002B2FD07B681B685D4A29
:102DF000934212D07B681B685B4A93420DD07B687C
:102E00001B685A4A934208D07B681B68584A934211
:102E100003D0FE21574801F031FA7B689B69002BF3
:102E200040D07B689B69B3F5807F3BD07B689B6912
:102E3000B3F5007F36D07B689B69B3F5407F31D016
:102E4000FF214C4801F01AFA2CE07B681B68454AC8
:102E5000934227D07B681B68434A934222D07B6809
:102E60001B68424A93421DD07B681B68424A9342CA
:102E700018D07B681B68414A934213D07B681B685B
:102E80003B4A93420ED07B681B683D4A934209D06F
:102E90007B681B683B4A934204D040F203113548DB
:102EA00001F0ECF97B689B68002B09D07B689B687C
:102EB000B3F5805F04D040F205112E4801F0DEF931
:102EC0007B68DB69002B09D07B68DB69B3F5004FB9
:102ED00004D04FF48371274801F0D0F97B6893F850
:102EE0003930DBB2002B06D17B68002283F8382012
:102EF000786801F029FB7B68242283F839207B68FD
:102F00001B687A681268D26822F40052DA60786826
:102F100000F03AF87B681B687A681268126922F43C
:102F200090421A617B681B687A681268526922F0C5
:102F30002A025A617B681B687A681268D26842F478
:102F40000052DA607B680022DA637B68202283F813
:102F500039207B68202283F83A200023184608375E
:102F6000BD4680BD001001400044004000480040C4
:102F70000014014048500008004C00400050004040
:102F800000780040007C0040F0B585B000AF78606C
:102F90000023FB607B685B68B04A934204D940F22F
:102FA0004C71AF4801F06AF97B68DB68002B09D0EF
:102FB0007B68DB68B3F5005F04D040F24D71A84830
:102FC00001F05CF97B681B69002B0ED07B681B69E4
:102FD000B3F5806F09D07B681B69B3F5C06F04D06F
:102FE00040F24E719E4801F049F97B685A694FF6EC
:102FF000F3731340002B03D17B685B69002B04D172
:1030000040F24F71964801F039F97B681B681B69E3
:10301000FB60FB6823F44053FB607B68DB68FA6865
:103020001343FB607B681B68FA681A617B681B6846
:10303000DB68FB60FB6823F4164323F00C03FB60A2
:103040007B689A687B681B691A437B685B691A43D3
:103050007B68DB691343FA681343FB607B681B687A
:10306000FA68DA607B681B685B69FB60FB6823F4C5
:103070004073FB607B689B69FA681343FB607B6865
:103080001B68FA685A617B68DB69B3F5004F40F052
:10309000EF807B681B68734A934204D07B681B688F
:1030A000714A93426CD17B681C68FFF75DF9024658
:1030B00013469B0013449A001A447B685B685B00CC
:1030C000B2FBF3F3694AA2FB03235B091D01FFF77F
:1030D0004BF9024613469B0013449A001A447B683E
:1030E0005B685B00B2FBF3F6FFF73EF9024613465E
:1030F0009B0013449A001A447B685B685B00B2FB38
:10310000F3F35A4AA2FB03235B09642202FB03F395
:10311000F31ADB003233554AA2FB03235B0903F0A9
:10312000F8035B001D44FFF71FF9024613469B009E
:1031300013449A001A447B685B685B00B2FBF3F6A9
:10314000FFF712F9024613469B0013449A001A44F3
:103150007B685B685B00B2FBF3F3444AA2FB03238A
:103160005B09642202FB03F3F31ADB0032333F4AAC
:10317000A2FB03235B0903F007032B44A36059E17F
:103180007B681C68FFF7CEF8024613469B00134489
:103190009A001A447B685B685B00B2FBF3F3334A26
:1031A000A2FB03235B091D01FFF7BCF8024613468F
:1031B0009B0013449A001A447B685B685B00B2FB77
:1031C000F3F6FFF7AFF8024613469B0013449A004C
:1031D0001A447B685B685B00B2FBF3F3234AA2FBF3
:1031E00003235B09642202FB03F3F31ADB0032338F
:1031F0001E4AA2FB03235B0903F0F8035B001D4496
:10320000FFF790F8024613469B0013449A001A44B5
:103210007B685B685B00B2FBF3F6FFF783F802465E
:1032200013469B0013449A001A447B685B685B005A
:10323000B2FBF3F30D4AA2FB03235B09642202FBFA
:1032400003F3F31ADB003233084AA2FB03235B09C2
:1032500003F007032B44A360ECE000BFA037A000FD
:103260004850000800100140001401401F85EB5138
:103270007B681B68714A934204D07B681B68704A64
:1032800093426BD17B681C68FFF76EF802461346C9
:103290009B0013449A001A447B685B689B00B2FB56
:1032A000F3F3684AA2FB03235B091D01FFF75CF8F7
:1032B000024613469B0013449A001A447B685B68DD
:1032C0009B00B2FBF3F6FFF74FF8024613469B0054
:1032D00013449A001A447B685B689B00B2FBF3F3CB
:1032E000584AA2FB03235B09642202FB03F3F31A8F
:1032F0001B013233534AA2FB03235B0903F0F003A3
:103300001D44FFF731F8024613469B0013449A0010
:103310001A447B685B689B00B2FBF3F6FFF724F866
:10332000024613469B0013449A001A447B685B686C
:103330009B00B2FBF3F3434AA2FB03235B09642225
:1033400002FB03F3F31A1B0132333E4AA2FB0323B1
:103350005B0903F00F032B44A3606BE07B681C68E0
:10336000FEF7E0FF024613469B0013449A001A44FE
:103370007B685B689B00B2FBF3F3324AA2FB03233A
:103380005B091D01FEF7CEFF024613469B00134466
:103390009A001A447B685B689B00B2FBF3F6FEF769
:1033A000C1FF024613469B0013449A001A447B68EF
:1033B0005B689B00B2FBF3F3224AA2FB03235B0989
:1033C000642202FB03F3F31A1B0132331D4AA2FBF2
:1033D00003235B0903F0F0031D44FEF7A3FF02463D
:1033E00013469B0013449A001A447B685B689B0059
:1033F000B2FBF3F6FEF796FF024613469B0013441A
:103400009A001A447B685B689B00B2FBF3F30D4A99
:10341000A2FB03235B09642202FB03F3F31A1B01E3
:103420003233084AA2FB03235B0903F00F032B444A
:10343000A360FFE700BF1437BD46F0BD0010014098
:10344000001401401F85EB5180B584B000AF786057
:1034500039600023FB600023BB607B688A4A93428B
:1034600004D04FF4AA61894800F008FF3B681B684C
:10347000002B08D03B681B68012B04D040F251514F
:10348000824800F0FBFE3B685B68002B10D03B6875
:103490005B68012B0CD03B685B68022B08D03B6853
:1034A0005B68032B04D040F25251784800F0E6FEEE
:1034B0003B689B68002B0CD03B689B68042B08D0B2
:1034C0003B689B68082B04D040F253516F4800F0D2
:1034D000D5FE3B68DB68002B0CD03B68DB68102B0B
:1034E00008D03B68DB68202B04D040F25451674879
:1034F00000F0C4FE3B681B69002B08D03B681B69C9
:10350000402B04D040F25551604800F0B7FE3B68B4
:103510005B69802B0ED03B685B69B3F5807F09D077
:103520003B685B69B3F5C07F04D040F25651574801
:1035300000F0A4FE3B689B69002B09D03B689B69A7
:10354000B3F5007F04D040F25751504800F096FE8A
:103550003B68DB69002B0ED03B68DB69B3F5006F7D
:1035600009D03B68DB69B3F5406F04D04FF4AB6121
:10357000464800F083FE3B681B6A002B09D03B687D
:103580001B6AB3F5805F04D040F259513F4800F008
:1035900075FE3B685B6A002B0ED03B685B6AB3F537
:1035A000005F09D03B685B6AB3F5804F04D040F2FE
:1035B0005A51364800F062FE3B681B68012B29D047
:1035C0007B681B68FB60FB6823F4FF4323F07F03E9
:1035D000FB603B685A683B689B681A433B68DB6842
:1035E0001A433B681B691A433B685B691A433B6893
:1035F0009B691A433B68DB691A433B681B6A1A43A1
:103600003B685B6A1343FA681343FB607B68FA68A4
:103610001A6034E07B681B68FB60FB6823F4F843A6
:10362000FB603B68DA693B681B6A1A433B685B6A6C
:103630001343FA681343FB607B685B68BB60BB683D
:1036400023F4FF4323F07F03BB603B685A683B6869
:103650009B681A433B68DB681A433B681B691A4343
:103660003B685B691A433B689B691343BA68134321
:10367000BB607B68FA681A607B68BA685A6000238E
:1036800018461037BD4680BD400100A078500008A4
:1036900080B586B000AFF860B9607A6000237B61C6
:1036A00000233B61FB68704A934204D040F2A15171
:1036B0006E4800F0E3FDBB681B68002B03D0BB68BD
:1036C0001B68102B04D940F2A251684800F0D6FDC7
:1036D000BB685B68002B03D0BB685B68102B04D908
:1036E00040F2A351614800F0C9FDBB689B68002B04
:1036F00003D0BB689B68102B04D940F2A4515B48EF
:1037000000F0BCFDBB68DB68002B03D0BB68DB6846
:10371000102B04D940F2A551544800F0AFFDBB680E
:103720001B69002B03D0BB681B69102B04D940F226
:10373000A6514E4800F0A2FDBB685B69002B03D088
:10374000BB685B69102B04D940F2A751474800F0D1
:1037500095FDBB689B69002B03D0BB689B69102B50
:1037600004D94FF4B561414800F088FD7B68002B17
:1037700007D07B68012B04D040F2A9513B4800F0F0
:103780007DFD7B68012B2ED0FB689B687B617B698C
:1037900003F070437B61BB681B685A1EBB685B68A3
:1037A000013B1B011A43BB689B68013B1B021A4388
:1037B000BB68DB68013B1B031A43BB681B69013B09
:1037C0001B041A43BB685B69013B1B051A43BB68BA
:1037D0009B69013B1B0613437A6913437B61FB68BA
:1037E0007A699A603BE0FB689B687B617B6923F4A4
:1037F000700323F470437B61BB68DB68013B1A03F1
:10380000BB685B69013B1B0513437A6913437B610A
:10381000FB68DB683B613B6903F070433B61BB685D
:103820001B685A1EBB685B68013B1B011A43BB68DF
:103830009B68013B1B021A43BB681B69013B1B04CD
:103840001A43BB689B69013B1B0613433A69134348
:103850003B61FB687A699A60FB683A69DA60002329
:1038600018461837BD4680BD400100A078500008BA
:1038700080B483B000AF7860FEE700BF80B584B04D
:1038800000AF7860144B1B68002B02D1124B134A17
:103890001A60114B1B68FB607B68033323F0030342
:1038A0007B600D4B1A687B6813440D4A934207D91D
:1038B00000F090FE02460C2313604FF0FF3306E049
:1038C000054B1A687B681344034A1360FB6818466B
:1038D0001037BD4680BD00BF7C000020E002002004
:1038E00000FC032080B483B000AF786039607B684F
:1038F00001221A603B68034A1A6000BF0C37BD46BC
:1039000080BC7047040000200FB480B582B000AFC7
:1039100007F114033B603B683A6980210A4800F0D4
:1039200095FE78607B68002B05DD7B6819460648AC
:1039300000F00CF878607B6818460837BD46BDE893
:10394000804004B0704700BF8400002080B483B082
:1039500000AF786039604FF0FF3318460C37BD4632
:1039600080BC704780B500AF00F0A8F8024B034A56
:103970009A6000BF80BD00BF00ED00E000000008BD
:1039800080B500AF00F0C8F800BF80BD80B584B03E
:1039900000AFF860B9607A603B603448FFF7B4FF6D
:1039A000FB681B6819463248FFF7AEFFFB685B688F
:1039B00019463048FFF7A8FFFB689B6819462E4858
:1039C000FFF7A2FFFB68DB6819462C48FFF79CFF56
:1039D000FB681B6919462A48FFF796FFFB685B697D
:1039E00019462848FFF790FFFB689B69194626484F
:1039F000FFF78AFFFB68DB6919462448FFF784FF5D
:103A00002348FFF781FFB9682248FFF77DFF224B6B
:103A1000DB6A19462148FFF777FF1F4B1B6B1946DE
:103A20001F48FFF771FF1C4BDB6B19461D48FFF762
:103A30006BFFBB6803F08003002B03D079681A4842
:103A4000FFF762FFBB6803F40043002B03D0396823
:103A50001648FFF759FF1648FFF756FFB969154892
:103A6000FFF752FF00BF1037BD4680BDA4500008CD
:103A7000B4500008C4500008D4500008E4500008B6
:103A8000F4500008045100081451000824510008A3
:103A9000345100084051000800ED00E0505100088A
:103AA00060510008705100088051000890510008D2
:103AB000A0510008A8510008FEE7000080B400AF44
:103AC000124A124B1B6843F0010313600F4B002294
:103AD0009A600E4A0D4B1B6823F0847323F48033E5
:103AE00013600A4B0A4A5A60084A084B1B6823F4C1
:103AF00080231360054B0022DA60064B4FF0006212
:103B00009A6000BFBD4680BC704700BF00380240CD
:103B10001030002400ED00E080B487B000AF002337
:103B20003B6100237B610223FB600023BB60022317
:103B30007B60324B9B6803F00C033B613B69042BB9
:103B400007D0082B09D0002B3FD12D4B2D4A1A60EE
:103B50003FE02B4B2C4A1A603BE0284B5B6803F498
:103B600080039B0DBB60254B5B6803F03F037B60CC
:103B7000BB68002B0DD0244A7B68B2FBF3F21F4BCD
:103B8000596847F6C0730B409B0903FB02F37B6146
:103B90000CE01C4A7B68B2FBF3F2184B596847F6FD
:103BA000C0730B409B0903FB02F37B61134B5B6803
:103BB00003F440331B0C01335B00FB607A69FB6844
:103BC000B2FBF3F30E4A136003E00D4B0D4A1A608B
:103BD00000BF0A4B9B6803F0F0031B090B4AD35C40
:103BE0003B61074B1A683B6922FA03F3044A1360EE
:103BF00000BF1C37BD4680BC704700BF0038024084
:103C00000C0000200024F40040787D01EC510008F5
:103C100080B500AFFCF744FC00F00EF800F004FAA9
:103C200000F0BEF900F08AF800F0B6F800F058F99C
:103C300000F08CF9FEE700BF80B5A0B000AF002314
:103C4000BB603B4A3A4B1B6C43F080531364384BC8
:103C50001B6C03F08053BB60BB6800237B60354A5C
:103C6000344B1B6843F440431360324B1B6803F42E
:103C700040437B607B6801233B6501237B65022316
:103C8000BB664FF48003FB6608233B674FF4A873C1
:103C90007B670223BB670723FB6707F150031846C6
:103CA000FDF724FE0346002B01D000F0E3FA0F23BA
:103CB000FB6302233B6400237B644FF4A053BB648B
:103CC0004FF48053FB6407F13C0305211846FEF7CF
:103CD000CDF80346002B01D000F0CCFA0823FB609E
:103CE0004FF48273FB6102237B6200233B6307F185
:103CF0000C031846FEF75AFB0346002B01D000F0D8
:103D0000B9FAFEF705FB02460B4BA3FB02239B0906
:103D10001846FCF715FD0420FCF71EFD00220021CB
:103D20004FF0FF30FCF7E0FC00BF8037BD4680BDA0
:103D30000038024000700040D34D621080B500AFE3
:103D4000124B134A1A60114B124A5A600F4B002251
:103D50009A600E4B0022DA600C4B4FF480421A61DD
:103D60000A4B00225A61094B00229A61074B00223C
:103D7000DA61064B00221A620448FDF773F8034625
:103D8000002B01D000F076FA00BF80BD14010020A6
:103D9000005C0040A086010080B59AB000AF4E4B99
:103DA0004E4A1A604C4B00225A604B4B00229A60DC
:103DB000494B0022DA60484B00221A61464B072229
:103DC0005A61454B03229A61434B0E22DA61424B02
:103DD00005221A62404BFE225A623F4B40F24512C6
:103DE0009A623D4B4FF48272DA623B4B40F24712CB
:103DF0001A63394B002283F83420374B002283F8B2
:103E00003520354B002283F836203348FDF792F9F0
:103E10000346002B01D000F02DFA00237B63002322
:103E2000BB630023FB6300233B6400237B6400230C
:103E3000BB640023FB644FF480633B6505237B6513
:103E40000023BB650023FB6500233B66002387F846
:103E50006430002387F86530002387F8663007F167
:103E60003403002219461C48FDF7CAFA0346002B0A
:103E700001D000F0FFF900233B6000237B600023AA
:103E8000BB600023FB6000233B6100237B610023B8
:103E9000BB614FF48063FB6105233B6200237B62BF
:103EA0000023BB620023FB62002387F8303000232D
:103EB00087F83130002387F832303B46012219461B
:103EC0000548FDF79DFA0346002B01D000F0D2F91A
:103ED00000BF6837BD4680BDC001002000680140BA
:103EE00080B500AF174B184A1A60164B4FF4827218
:103EF0005A60144B00229A60124B0022DA60114B78
:103F000000221A610F4B00225A610E4B4FF40072CF
:103F10009A610C4B0022DA610A4B00221A62094BAB
:103F200000225A62074B00229A62064B0A22DA628A
:103F30000448FEF719FE0346002B01D000F09AF961
:103F400000BF80BD680100200050014080B500AF77
:103F5000114B124A1A60104B4FF4E1325A600E4B6B
:103F600000229A600C4B0022DA600B4B00221A618F
:103F7000094B0C225A61084B00229A61064B002221
:103F8000DA610548FEF724FF0346002B01D000F05C
:103F900071F900BF80BD00BF680200200010014021
:103FA00080B588B000AF1E4B1E4A1A601C4B012220
:103FB0005A601B4B00229A60194B0422DA60184B9E
:103FC00010221A61164B40225A61154B80229A61C9
:103FD000134B0022DA61124B00221A62104B0022AE
:103FE0005A620F4B00229A6210237B601023BB6041
:103FF0001023FB6010233B6110237B611023BB6106
:104000001023FB613B1D19460548FEF76FFD034673
:10401000002B01D000F02EF900BF2037BD4680BD37
:10402000A8020020400100A080B58EB000AF0023A0
:104030003B62894A884B1B6B43F004031363864B36
:104040001B6B03F004033B623B6A0023FB61824A63
:10405000814B1B6B43F0200313637F4B1B6B03F0FF
:104060002003FB61FB690023BB617B4A7A4B1B6B1E
:1040700043F080031363784B1B6B03F08003BB6139
:10408000BB6900237B61744A734B1B6B43F00103D4
:104090001363714B1B6B03F001037B617B6900238E
:1040A0003B616D4A6C4B1B6B43F0020313636A4B1D
:1040B0001B6B03F002033B613B690023FB60664A14
:1040C000654B1B6B43F040031363634B1B6B03F0A7
:1040D0004003FB60FB680023BB605F4A5E4B1B6BC9
:1040E00043F0100313635C4B1B6B03F01003BB60C6
:1040F000BB6800237B60584A574B1B6B43F0080397
:104100001363554B1B6B03F008037B607B68002235
:1041100016215248FCF77AFE002280215048FCF715
:1041200075FE00224FF440514E48FCF76FFE00220E
:104130004FF4C0414C48FCF769FE16237B62012313
:10414000BB620023FB6200233B6307F12403194693
:104150004248FCF735FB48F207037B62434BBB62E6
:104160000023FB6207F1240319463D48FCF728FBB6
:1041700080237B620123BB620023FB6200233B633D
:1041800007F1240319463648FCF71AFB20237B620B
:10419000364BBB620023FB6207F1240319462F480C
:1041A000FCF70EFB04237B620023BB620023FB624F
:1041B00007F1240319462E48FCF702FB4FF4504345
:1041C0007B620223BB620023FB6200233B630C2360
:1041D0007B6307F1240319462548FCF7F1FA4FF4F5
:1041E00000537B620023BB620023FB6207F12403C0
:1041F00019461F48FCF7E4FA4FF400637B62002382
:10420000BB620023FB6207F1240319461548FCF743
:10421000D7FA4FF440537B620123BB620023FB6259
:1042200000233B6307F1240319460E48FCF7C8FA44
:104230004FF4C0437B620123BB620023FB62002377
:104240003B6307F1240319460748FCF7B9FA00BF9E
:104250003837BD4680BD00BF00380240000802402C
:1042600000000240000C0240001802400000121042
:104270000004024080B400AFFEE700BF80B483B00A
:1042800000AF7860396000BF0C37BD4680BC704716
:1042900080B500AF0720FCF707FA002200216FF07D
:1042A0000B00FCF721FA002200216FF00A00FCF756
:1042B0001BFA002200216FF00900FCF715FA00221A
:1042C00000216FF00400FCF70FFA002200216FF0CC
:1042D0000300FCF709FA002200216FF00100FCF74F
:1042E00003FA002200214FF0FF30FCF7FDF900BF78
:1042F00080BD00BF80B588B000AF78607B681B6868
:104300001B4A93422FD14FF40073FB6012233B6191
:1043100001237B610023BB610423FB6107F10C03D4
:1043200019461448FCF74CFA4FF48073FB601223D3
:104330003B6101237B610023BB610423FB6107F127
:104340000C0319460C48FCF73BFA0023BB600B4AF0
:104350000A4B1B6C43F400031364084B1B6C03F4FF
:104360000003BB60BB6800BF2037BD4680BD00BFF7
:10437000005C00400008024000000240003802409B
:1043800080B588B000AF78607B681B684D4A934267
:1043900040F094800023BB604B4A4B4B5B6C43F076
:1043A00080635364484B5B6C03F08063BB60BB6805
:1043B0004FF48063FB6002233B6100237B61002399
:1043C000BB610E23FB6107F10C0319463F48FCF764
:1043D000F7F941F65803FB6002233B6100237B6140
:1043E0000023BB610E23FB6107F10C03194638481B
:1043F000FCF7E6F90323FB6002233B6100237B61AA
:104400000023BB610923FB6107F10C031946314806
:10441000FCF7D6F94FF47063FB6002233B61002385
:104420007B610023BB610E23FB6107F10C0319467E
:104430002848FCF7C5F94FF40C63FB6002233B618D
:1044400000237B610023BB610E23FB6107F10C039A
:1044500019462148FCF7B4F94FF49863FB60022336
:104460003B6100237B610023BB610E23FB6107F1ED
:104470000C0319461948FCF7A3F94823FB600223F3
:104480003B6100237B610023BB610E23FB6107F1CD
:104490000C0319461248FCF793F94FF4A053FB6044
:1044A00002233B6100237B610023BB610923FB6185
:1044B00007F10C0319460848FCF782F900BF2037C2
:1044C000BD4680BD00680140003802400014024033
:1044D00000000240000402400018024000080240B0
:1044E000000C024080B588B000AF78607B681B6824
:1044F000124A93421ED10023BB60114A104B5B6CE1
:1045000043F4801353640E4B5B6C03F48013BB6065
:10451000BB684FF46073FB6002233B6100237B6147
:104520000023BB610523FB6107F10C031946054815
:10453000FCF746F900BF2037BD4680BD0050014062
:10454000003802400014024080B588B000AF7860A7
:104550007B681B68124A93421ED10023BB60114A3C
:10456000104B5B6C43F0100353640E4B5B6C03F019
:104570001003BB60BB684FF4C063FB6002233B6168
:1045800001237B610323BB610723FB6107F10C035C
:1045900019460548FCF714F900BF2037BD4680BD19
:1045A00000100140003802400000024080B400AF1B
:1045B00000BFBD4680BC704780B400AF00BFBD46A1
:1045C00080BC704780B500AFFBF7A8FFFCF7ECF8A4
:1045D00000BF80BD014B1868704700BF700000200D
:1045E00010B5431E0A44914204D011F8014B03F860
:1045F000014FF8E710BD30B5141E05469BB01846B4
:1046000004DA8B232B604FF0FF301DE04FF4027370
:10461000ADF80C3014BF04F1FF3323460293059329
:104620004FF6FF7300910491ADF80E3002461E9BC9
:104630006946284600F072F8431CBCBF8B232B60F0
:1046400014B1009B00221A701BB030BD07B5009357
:1046500013460A46014603480068FFF7CCFF03B043
:104660005DF804FB700000202DE9F0478E689E4243
:1046700082460C46914698463ED88A8912F4906F3D
:104680003AD0256809696F1A6569022305EB45056B
:1046900095FBF3F57B1C43449D4238BF1D465305F3
:1046A0000FD5294600F086FB064698B13A462169A7
:1046B000FFF796FFA38923F4906343F08003A3815F
:1046C00013E02A4600F0D4FB064670B92169504633
:1046D00000F022FB0C23CAF80030A38943F040030A
:1046E000A3814FF0FF30BDE8F087266165613E444D
:1046F000ED1B2660A5604646464528BF4646324625
:104700004946206800F0ECFAA3689B1BA36023686D
:104710001E4426600020BDE8F08700002DE9F04F20
:104720009DB0804603938B891C060D4616460DD519
:104730000B695BB9402100F03DFB2860286118B986
:104740000C23C8F80030CDE040236B6100230993AF
:1047500020238DF82930DFF89CB130238DF82A30E2
:1047600037463C4614F8013B1BB9B7EB060910D09D
:1047700003E0252BF9D02746F3E74B46324629467E
:104780004046FFF771FF013000F0A780099B4B44C2
:1047900009933B78002B00F0A08000234FF0FF32FC
:1047A00004930793059206938DF853301A930126CC
:1047B000052221784E4800F043FA671C049B38B16B
:1047C0004B4A801A06FA00F0184304903C46EFE783
:1047D000D90644BF20228DF853201A0744BF2B224C
:1047E0008DF8532022782A2A03D0079A00210A2024
:1047F0000BE0039A111D12680391002A10DA52424D
:1048000043F00200079204900BE0274601343B7806
:10481000303B092B03D800FB02320121F5E701B13F
:1048200007923B782E2B1ED17B782A2B0AD1039B33
:104830001A1D1B680392002BB8BF4FF0FF330237DD
:10484000059310E000230593781C19460A240746B7
:1048500001303A78303A092A03D804FB01210123B8
:10486000F5E703B1059103223978224800F0E8F911
:1048700040B14023CBEB000003FA00F0049B184347
:104880000490013739781C488DF8281006227E1CC8
:1048900000F0D6F988B1194B33B9039B073323F0E5
:1048A00007030833039314E003AB00932A46144B29
:1048B00004A94046AFF3008007E003AB00932A460B
:1048C0000F4B04A9404600F093F8B0F1FF3F824639
:1048D00003D0099B5344099342E7AB895B0601D49B
:1048E000099801E04FF0FF301DB0BDE8F08F00BF28
:1048F000FE510008045200080852000800000000A1
:10490000694600082DE9F04791461F460A698B6801
:10491000DDF820809342B8BF1346C9F8003091F803
:10492000432006460C4612B10133C9F80030236813
:10493000990642BFD9F800300233C9F80030256823
:1049400015F0060510D104F1190A07E001235246BB
:1049500039463046C04701301AD00135E368D9F8EE
:1049600000209B1A9D42F1DB94F84330226800330B
:1049700018BF012392060FD5E1185A1C302081F888
:104980004300224494F8451082F84310023303E0B8
:104990004FF0FF30BDE8F08704F14302394630465E
:1049A000C0470130F4D02268D9F80050E36802F023
:1049B0000602042A08BF5D1B2269A3680CBF25EA12
:1049C000E57500259342C4BF9B1AED184FF000090E
:1049D0001A344D4509D00123224639463046C04796
:1049E0000130D5D009F10109F3E70020BDE8F087D7
:1049F0002DE9F04317460A7E85B06E2A9846064692
:104A00000C460C9B01F1430E00F0AE8011D8632AD6
:104A100022D009D8002A00F0BB80582A40F0CA8072
:104A200081F84520834955E0642A1ED0692A1CD0AC
:104A3000C0E0732A00F0B08009D86F2A2ED0702A07
:104A400040F0B8800A6842F020020A603EE0752A11
:104A500024D0782A3AD0ADE01A6801F14205111D40
:104A60001960136884F84230A8E021681A6811F0D0
:104A7000800F02D0111D196008E011F0400F02F103
:104A80000401196002D0B2F9003000E01368002B75
:104A90003CDA2D225B4284F8432037E021681A6813
:104AA00011F0800F02D0111D196007E011F0400FC6
:104AB00002F10401196001D0138800E01368227E1E
:104AC0005C496F2A14BF0A2208221BE078225A4947
:104AD00084F845202268186812F0800F00F1040560
:104AE0001D6003D1550601D5038800E00368D00797
:104AF00044BF42F0200222601BB9226822F020024B
:104B000022601022002084F8430001E049490A2273
:104B10006568A560002D08DB206820F00400206097
:104B20002BB9002D7DD175460CE0002B79D0754650
:104B3000B3FBF2F002FB1033CB5C05F8013D0346FA
:104B40000028F5D1082A0BD12368DA0708D5236994
:104B500062689A42DEBF302305F8013C05F1FF355B
:104B6000C5EB0E0323612EE008681A68496910F04E
:104B7000800F03D0101D1860136808E010F0400F7C
:104B800002F104001860136801D0198000E0196078
:104B900000232361754616E01A68111D1960156817
:104BA00062680021284600F04BF808B1401B6060A5
:104BB000636804E004F1420584F842200123236184
:104BC000002384F84330CDF800803B4603AA2146F9
:104BD0003046FFF797FE013002D14FF0FF3026E05C
:104BE00023692A4639463046C0470130F5D023684C
:104BF0009B0710D5002504F1190907E001234A4657
:104C000039463046C0470130E7D00135E368039AA2
:104C10009B1A9D42F2DBE068039B9842B8BF18469E
:104C200005E00B7884F8423004F142058AE705B0CC
:104C3000BDE8F0830F520008205200080000000079
:104C400001F0FF01102A2BDB10F0070F08D010F83D
:104C5000013B013A8B422DD010F0070F42B3F6D141
:104C6000F0B441EA012141EA014122F007047FF05A
:104C700000070023F0E80256083C85EA010586EAB1
:104C8000010685FA47F5A3FA87F586FA47F6A5FAED
:104C900087F68EB9EED1F0BC01F0FF0102F00702F9
:104CA00032B110F8013B013A83EA010313B1F8D1A4
:104CB0000020704701387047002D06BF3546033885
:104CC000073815F0010F07D1013015F4807F02BFBE
:104CD000013015F4C03F0130F0BC0138704700BF0F
:104CE000884210B501EB020301D8421E0BE0984246
:104CF000FBD28118D21AD34204D013F8014D01F827
:104D0000014DF8E710BD994204D011F8014B02F8AB
:104D1000014FF8E710BD000038B50546002946D020
:104D200051F8043C0C1F002BB8BFE41800F0D6F873
:104D30001F4A1368114613B96360146032E0A3423E
:104D40000ED92268A018834204BF18685B686360AC
:104D500004BF121822600C6024E0A24203D813465C
:104D60005A68002AF9D118681918A1420BD1216894
:104D7000014458188242196014D1106852685A6070
:104D8000014419600EE002D90C232B600AE021686F
:104D90006018824204BF10685268626004BF09183C
:104DA00021605C602846BDE8384000F098B838BD06
:104DB0000801002070B5CD1C25F0030508350C2D29
:104DC00038BF0C25002D064601DBA94202D90C2371
:104DD000336046E000F082F8234B1C681A462146F7
:104DE000A1B10B685B1B0ED40B2B03D90B60CC1845
:104DF000CD501EE08C420DBF63684B68636013604A
:104E000018BF0C4615E00C464968E9E7174C2368C3
:104E10001BB9304600F052F820602946304600F0B9
:104E20004DF8431C18D0C41C24F00304A0420DD13B
:104E30002560304600F053F804F10B00231D20F0EC
:104E40000700C31A0ED05A42E25070BD211A3046F4
:104E500000F034F80130EBD10C233360304600F021
:104E60003EF8002070BD00BF0801002004010020B2
:104E7000F8B5074615460E4621B91146BDE8F8407B
:104E8000FFF798BF1AB9FFF747FF2846F8BD00F0B3
:104E900027F885420ED929463846FFF78BFF04468E
:104EA00050B131462A46FFF79BFB31463846FFF7A3
:104EB00033FF01E03046F8BD2046F8BD38B5064C5A
:104EC0000023054608462360FEF7D8FC431C02D1A8
:104ED000236803B12B6038BD100100207047704774
:104EE00051F8040C0028BEBF091851F8043CC01842
:104EF000043870472E2E2F73797374656D2F73727B
:104F0000632F73746D3332663478782F73746D3316
:104F100032663478785F68616C5F636F727465784D
:104F20002E6300002E2E2F73797374656D2F7372AC
:104F3000632F73746D3332663478782F73746D33E6
:104F400032663478785F68616C5F6770696F2E6372
:104F5000000000002E2E2F73797374656D2F73720D
:104F6000632F73746D3332663478782F73746D33B6
:104F700032663478785F68616C5F6932632E6300F3
:104F80002E2E2F73797374656D2F7372632F737464
:104F90006D3332663478782F73746D3332663478BB
:104FA000785F68616C5F6C7464632E63000000005E
:104FB00000000000010203040102030406070809BF
:104FC0002E2E2F73797374656D2F7372632F737424
:104FD0006D3332663478782F73746D33326634787B
:104FE000785F68616C5F7263632E63002E2E2F738F
:104FF000797374656D2F7372632F73746D333266BA
:105000003478782F73746D3332663478785F6861E2
:105010006C5F7263635F65782E6300002E2E2F73C2
:10502000797374656D2F7372632F73746D33326689
:105030003478782F73746D3332663478785F6861B2
:105040006C5F7370692E63002E2E2F7379737465F5
:105050006D2F7372632F73746D3332663478782FCB
:1050600073746D3332663478785F68616C5F756134
:1050700072742E63000000002E2E2F7379737465F6
:105080006D2F7372632F73746D3332663478782F9B
:1050900073746D3332663478785F6C6C5F666D6301
:1050A0002E630000537461636B206672616D653A14
:1050B0000A000000205230203D2020253038580AB8
:1050C00000000000205231203D2020253038580AB1
:1050D00000000000205232203D2020253038580AA0
:1050E00000000000205233203D2020253038580A8F
:1050F0000000000020523132203D20253038580A6F
:1051000000000000204C52203D2020253038580A55
:1051100000000000205043203D2020253038580A50
:105120000000000020505352203D20253038580AFE
:10513000000000004653522F4641523A0A00000038
:105140002043465352203D2020253038580A000085
:105150002048465352203D2020253038580A000070
:105160002044465352203D2020253038580A000064
:105170002041465352203D2020253038580A000057
:10518000204D4D464152203D20253038580A000020
:105190002042464152203D2020253038580A000048
:1051A0004D6973630A000000204C522F4558435F3D
:1051B00052455455524E3D20253038580A000000C3
:1051C0005B486172644661756C745D0A00000000A2
:1051D0005B4275734661756C745D0A005B55736163
:1051E00067654661756C745D0A0000000000000090
:1051F0000000000001020304060708094300232DF4
:10520000302B2000686C4C006566674546470030CF
:10521000313233343536373839414243444546001C
:10522000303132333435363738396162636465661C
:01523000007D
:105234007856341280000020000000000024F4009E
:10524400000000000000000000000000000000005A
:10525400000000000000000000000000000000004A
:10526400FC510008000000000000000000000000E5
:10527400000000000000000000000000000000002A
:10528400000000000000000000000000000000001A
:10529400000000000000000000000000000000000A
:0852A40010000020325476983E
:04000005080001AD41
:00000001FF
